:020000040000FA
:100000000C9458000C9480000C9480000C94800098
:100010000C9480000C9480000C9480000C94800060
:100020000C9480000C9480000C9480000C94800050
:100030000C9480000C9480000C9480000C94800040
:100040000C94B6040C9480000C9484040C945E040C
:100050000C9480000C9480000C9480000C94800020
:100060000C9400050C94800000000000250028007E
:100070002B00040404040404040402020202020229
:10008000030303030303010204081020408001025C
:1000900004081020010204081020000000080002DB
:1000A00001000003040700000000000000001F061C
:1000B00011241FBECFEFD8E0DEBFCDBF11E0A0E01E
:1000C000B1E0E2E3FEE002C005900D92A433B10777
:1000D000D9F722E0A4E3B1E001C01D92A03AB20733
:1000E000E1F710E0C8E5D0E004C02197FE010E94CE
:1000F0001107C735D107C9F70E9458060C94170796
:100100000C94000008950895AF92BF92CF92DF92B1
:10011000EF92FF920F931F93CF93DF936C017B01BC
:100120008B01040F151FEB015E01AE18BF08C0174D
:10013000D10759F06991D601ED91FC910190F081C0
:10014000E02DC6010995892B79F7C501DF91CF9183
:100150001F910F91FF90EF90DF90CF90BF90AF90E5
:100160000895FC01538D448D252F30E0842F90E0BD
:10017000821B930B541710F0CF96089501970895A2
:10018000FC01918D828D981761F0A28DAE0FBF2F6B
:10019000B11D5D968C91928D9F5F9F73928F90E0C1
:1001A00008958FEF9FEF0895FC01918D828D981730
:1001B00031F0828DE80FF11D858D90E008958FEF6D
:1001C0009FEF0895FC01918D228D892F90E0805C36
:1001D0009F4F821B91098F739927089587EF91E0B4
:1001E0000E94E20021E0892B09F420E0822F08958B
:1001F00080E090E0892B29F00E94EE0081110C94A0
:1002000000000895FC01A48DA80FB92FB11DA35AB9
:10021000BF4F2C91848D90E001968F739927848F26
:10022000A689B7892C93A089B1898C918370806449
:100230008C93938D848D981306C00288F389E02DEA
:1002400080818F7D80830895EF92FF920F931F939B
:10025000CF93DF93EC0181E0888F9B8D8C8D981379
:100260001AC0E889F989808185FF15C09FB7F89485
:10027000EE89FF896083E889F989808183708064D1
:1002800080839FBF81E090E0DF91CF911F910F911C
:10029000FF90EF900895F62E0B8D10E00F5F1F4F2B
:1002A0000F731127E02E8C8D8E110CC00FB607FC3A
:1002B000FACFE889F989808185FFF5CFCE010E94C8
:1002C0000201F1CFEB8DEC0FFD2FF11DE35AFF4F33
:1002D000F0829FB7F8940B8FEA89FB898081806256
:1002E000CFCFCF93DF93EC01888D8823B9F0AA8913
:1002F000BB89E889F9898C9185FD03C0808186FDE1
:100300000DC00FB607FCF7CF8C9185FFF2CF80812F
:1003100085FFEDCFCE010E940201E9CFDF91CF91A1
:10032000089590E0FC01E656FF4F2491FC01EA5746
:10033000FF4F3491FC01EE58FF4FE491EE23C9F0DA
:10034000222339F0233001F1A8F4213019F12230B1
:1003500029F1F0E0EE0FFF1FE859FF4FA591B4918E
:100360008FB7F894EC91611126C030953E233C93F1
:100370008FBF08952730A9F02830C9F0243049F7FD
:10038000809180008F7D03C0809180008F77809363
:100390008000DFCF84B58F7784BDDBCF84B58F7DC0
:1003A000FBCF8091B0008F778093B000D2CF809147
:1003B000B0008F7DF9CF3E2BDACF3FB7F894809114
:1003C0009D0190919E01A0919F01B091A00126B541
:1003D000A89B05C02F3F19F00196A11DB11D3FBF7D
:1003E000BA2FA92F982F8827BC01CD01620F711D4C
:1003F000811D911D42E0660F771F881F991F4A9546
:10040000D1F708958F929F92AF92BF92CF92DF92D1
:10041000EF92FF920E94DD014B015C0184EFC82E38
:10042000DD24D394E12CF12C0E94DD0168197909B7
:100430008A099B09683E734081059105A8F321E074
:10044000C21AD108E108F10888EE880E83E0981EF0
:10045000A11CB11CC114D104E104F10429F7FF90DF
:10046000EF90DF90CF90BF90AF909F908F900895C6
:1004700020917501260F3327331F21323105ECF40B
:100480002091CD01FC0190E080E0243069F082E011
:100490000895A09175012191AC014B5A5E4FA40FB4
:1004A000B52FB11D2C930196861798F38091750195
:1004B000680F6093750180E0089581E008951092BF
:1004C000CD0181E08093CC011092A70161E082E12F
:1004D0000E94910161E083E10E949101E9EBF0E06B
:1004E00080818E7F808380818D7F808388E480936C
:1004F000B80085E48093BC000895CF93DF9391E02A
:10050000909354018823B9F0C091B800D091BA00FB
:100510008091BC008A7B8093BC0060E082E10E94F5
:10052000910160E083E10E9491010E945F02D093FB
:10053000BA00C093B800DF91CF9108950895E0917B
:10054000A6018091A501E81730F4F0E0EC5CFE4FC5
:10055000808190E008958FEF9FEF08959091A6011C
:100560008091A5012FEF3FEF981748F4E92FF0E0B5
:10057000EC5CFE4F208130E09F5F9093A601C901A3
:1005800008958091A5019091A601891B990B08956A
:10059000CF92DF92EF92FF920F931F93CF93DF934F
:1005A0007C01CB018A012091F601222389F0EB0125
:1005B0006B01C40ED51ECC15DD0569F06991D7011C
:1005C000ED91FC910190F081E02DC7010995F3CFE9
:1005D000642F0E943802C801DF91CF911F910F91C3
:1005E000FF90EF90DF90CF900895CF93DF931F920D
:1005F000CDB7DEB769832091F6012223F9F020916F
:10060000F301203258F021E030E0FC0133832283F3
:1006100090E080E00F90DF91CF9108958091F401F8
:10062000E82FF0E0ED52FE4F998190838F5F809329
:10063000F4018093F30181E090E0ECCF61E0CE0122
:1006400001960E943802F7CFCF92DF92EF92FF928D
:100650000F931F93CF9381E08093F60188E38093FB
:10066000F5011092F4011092F3016FEF84E992E02A
:100670000E94F502C091F301C13208F091C00E94BE
:10068000DD016B017C018091CD01811164C082E0AC
:100690008093CD0181E08093CC018FEF8093CB01DB
:1006A0001092CA01C093C901A3EDB1E0E9EAF1E0FB
:1006B00080E0C81383C01092A8018091A8018067D0
:1006C0008093A8018091A701813009F07BC010922E
:1006D000A7010E94DD016B017C018091A80180933C
:1006E000BB008091CF019091D001A091D101B09138
:1006F000D201892B8A2B8B2B99F00E94DD0100916E
:10070000CF011091D0012091D1013091D2016C190B
:100710007D098E099F090617170728073907E0F199
:100720008091BC0083FDD9CF85EC8093BC000E94F2
:10073000DD016B017C018091CD01823009F444C060
:100740008091CB018F3F61F18091CB01803241F1EB
:100750008091CB0125C08091CF019091D001A091D3
:10076000D101B091D201892B8A2B8B2B09F48BCF2D
:100770000E94DD010091CF011091D0012091D101A3
:100780003091D2016C197D098E099F090617170750
:100790002807390708F077CF8091CE010E947D02AB
:1007A0001092F4011092F3011092F601CF911F9173
:1007B0000F91FF90EF90DF90CF9008959D919193CE
:1007C0008F5F77CF85EEB1CF8091CF019091D0012F
:1007D000A091D101B091D201892B8A2B8B2B09F4E6
:1007E000AACF0E94DD010091CF011091D00120918C
:1007F000D1013091D2016C197D098E099F0906172C
:1008000017072807390708F096CFC6CF90E080E099
:100810000895CF93DF93FC0101900020E9F7319711
:10082000AF01481B590BBC0187EF91E00E94840087
:10083000EC0142E050E064E271E087EF91E00E9459
:1008400084008C0F9D1FDF91CF91089585ED8093DB
:10085000BC008091CF019091D001A091D101B091C5
:10086000D2010796A11DB11D23E0B695A7959795D6
:1008700087952A95D1F72091BC0024FD03C01092E2
:10088000CD0108954091CF015091D0016091D101E7
:100890007091D201452B462B472B69F30097A10598
:1008A000B10541F025E32A95F1F700000197A10970
:1008B000B109E1CF8091CE010C947D021F920F927D
:1008C0000FB60F9211242F933F934F935F936F9323
:1008D0007F938F939F93AF93BF93EF93FF9387EF94
:1008E00091E00E940201FF91EF91BF91AF919F9122
:1008F0008F917F916F915F914F913F912F910F90C9
:100900000FBE0F901F9018951F920F920FB60F9267
:1009100011242F938F939F93EF93FF93E0910702FE
:10092000F09108028081E0910D02F0910E0282FDAB
:100930001BC09081809110028F5F8F7320911102F4
:10094000821741F0E0911002F0E0E950FE4F958FE0
:1009500080931002FF91EF919F918F912F910F90B3
:100960000FBE0F901F9018958081F4CF1F920F92A9
:100970000FB60F9211242F933F938F939F93AF93B2
:10098000BF938091990190919A01A0919B01B091A0
:100990009C013091980123E0230F2D3758F50196E3
:1009A000A11DB11D209398018093990190939A0104
:1009B000A0939B01B0939C0180919D0190919E0119
:1009C000A0919F01B091A0010196A11DB11D80933E
:1009D0009D0190939E01A0939F01B093A001BF91B0
:1009E000AF919F918F913F912F910F900FBE0F90DC
:1009F0001F90189526E8230F0296A11DB11DD2CF96
:100A00001F920F920FB60F9211242F933F934F9383
:100A10005F936F937F938F939F93AF93BF93EF9366
:100A2000FF938091B900887F803609F44AC0F0F5C1
:100A3000883209F4A7C018F5803109F49BC0B8F4D6
:100A4000882309F4F9C0883009F494C0FF91EF912C
:100A5000BF91AF919F918F917F916F915F914F91D6
:100A60003F912F910F900FBE0F901F9018958831D6
:100A700009F488C0803251F78093CB0114C08034D0
:100A800009F49DC040F48033B9F38833F9F68093BC
:100A9000CB0185ECB0C0803509F485C0883509F4F8
:100AA00096C0883499F60E942604D0CF883909F47C
:100AB0008CC038F5883729F050F4883611F080372B
:100AC00029F683E08093CD011092970157C08838B2
:100AD00009F47BC0803919F0803809F0B7CF8091D4
:100AE0009701803208F071C0E091970181E08E0F8C
:100AF000809397018091BB00F0E0E958FE4F80831E
:100B00003DC0803B39F0E0F4803A09F479C0883A7E
:100B100009F09CCF84E08093CD0110927601109271
:100B20007501E091A301F091A401099580917501EF
:100B300081110FC081E0809375011092550109C0A9
:100B4000803C09F4A6CF883C09F4A3CF883B09F088
:100B50007DCFE091760181E08E0F80937601F0E009
:100B6000EB5AFE4F80818093BB009091760180917B
:100B7000750129C08091A8018093BB0085EC80930A
:100B8000BC0064CF9091CA018091C901981758F5B3
:100B9000E091CA0181E08E0F8093CA01F0E0E75531
:100BA000FE4F8081E9CFE091CA0181E08E0F8093F2
:100BB000CA018091BB00F0E0E755FE4F8083909121
:100BC000CA018091C9019817C8F285E8D8CFE09191
:100BD000CA0181E08E0F8093CA018091BB00F0E0D2
:100BE000E755FE4F80838091CC0181115CCF81E07D
:100BF0008093A70184EA8093BC001092CD0126CF98
:100C000085EC8093BC001092CD01809197018032D9
:100C100030F4E0919701F0E0E958FE4F10826091C6
:100C2000970170E0E091A101F091A20187E791E0C6
:100C30000995109297010ACF1092CB0134CFE7EFBC
:100C4000F1E01382128288EE93E0A0E0B0E08483AA
:100C50009583A683B78324E031E03183208325EC9C
:100C600030E03587248724EC30E03787268720EC76
:100C700030E0318B208B21EC30E0338B228B22EC67
:100C800030E0358B248B26EC30E0378B268B118EB1
:100C9000128E138E148EE4E9F2E0138212828483A2
:100CA0009583A683B78386E191E09183808308953D
:100CB000789484B5826084BD84B5816084BD85B537
:100CC000826085BD85B5816085BD80916E00816043
:100CD00080936E00109281008091810082608093E9
:100CE00081008091810081608093810080918000EB
:100CF0008160809380008091B10084608093B10016
:100D00008091B00081608093B00080917A0084600F
:100D100080937A0080917A00826080937A0080913B
:100D20007A00816080937A0080917A008068809355
:100D30007A001092C100E0910702F091080282E06F
:100D40008083E0910302F09104021082E091050299
:100D5000F09106028FEC808310920F02E0910B025B
:100D6000F0910C0286E08083E0910902F0910A0282
:100D7000808180618083E0910902F0910A02808184
:100D800088608083E0910902F0910A028081806886
:100D90008083E0910902F0910A0280818F7D808337
:100DA0001092A6011092A5011092F4011092F30185
:100DB0000E945F0282E890E09093A4018093A301D7
:100DC00083E890E09093A2018093A101C0E0D0E07D
:100DD00087E291E00E9409040E9424030E9402021B
:100DE0008BE291E00E9409040E9424030E94020207
:100DF0008FE291E00E9409040E9424030E940202F3
:100E000081E391E00E9409040E9424030E940202EF
:100E10002097F1F20E94EE008823D1F20E94000098
:100E2000D7CFEE0FFF1F0590F491E02D0994F894B1
:100E3000FFCF0000000024018400B1007101E20036
:100E4000C000D40000000000F502C80206049E02A3
:100E5000C102AE029F020D0A003235350031323830
:060E6000003000353100F6
:107E0000112484B714BE81FFF0D085E080938100F7
:107E100082E08093C00088E18093C10086E0809377
:107E2000C20080E18093C4008EE0C9D0259A86E02C
:107E300020E33CEF91E0309385002093840096BBD3
:107E4000B09BFECF1D9AA8958150A9F7CC24DD24C4
:107E500088248394B5E0AB2EA1E19A2EF3E0BF2EE7
:107E6000A2D0813461F49FD0082FAFD0023811F036
:107E7000013811F484E001C083E08DD089C08234E0
:107E800011F484E103C0853419F485E0A6D080C0E4
:107E9000853579F488D0E82EFF2485D0082F10E0AE
:107EA000102F00270E291F29000F111F8ED06801E7
:107EB0006FC0863521F484E090D080E0DECF843638
:107EC00009F040C070D06FD0082F6DD080E0C81688
:107ED00080E7D80618F4F601B7BEE895C0E0D1E017
:107EE00062D089930C17E1F7F0E0CF16F0E7DF06D8
:107EF00018F0F601B7BEE89568D007B600FCFDCFD4
:107F0000A601A0E0B1E02C9130E011968C91119780
:107F100090E0982F8827822B932B1296FA010C0160
:107F200087BEE89511244E5F5F4FF1E0A038BF0790
:107F300051F7F601A7BEE89507B600FCFDCF97BE46
:107F4000E89526C08437B1F42ED02DD0F82E2BD052
:107F50003CD0F601EF2C8F010F5F1F4F84911BD097
:107F6000EA94F801C1F70894C11CD11CFA94CF0C13
:107F7000D11C0EC0853739F428D08EE10CD085E9AC
:107F80000AD08FE07ACF813511F488E018D01DD067
:107F900080E101D065CF982F8091C00085FFFCCF94
:107FA0009093C60008958091C00087FFFCCF809118
:107FB000C00084FD01C0A8958091C6000895E0E648
:107FC000F0E098E1908380830895EDDF803219F02E
:107FD00088E0F5DFFFCF84E1DECF1F93182FE3DFCA
:107FE0001150E9F7F2DF1F91089580E0E8DFEE27F6
:047FF000FF270994CA
:027FFE00040479
:00000001FF
