:100000000C9458000C9480000C9480000C94800098
:100010000C9480000C9480000C9480000C94800060
:100020000C9480000C9480000C9480000C94800050
:100030000C9480000C9480000C9480000C94800040
:100040000C94C1040C9480000C948F040C946904EB
:100050000C9480000C9480000C9480000C94800020
:100060000C940B050C948000000000002500280073
:100070002B00040404040404040402020202020229
:10008000030303030303010204081020408001025C
:1000900004081020010204081020000000080002DB
:1000A00001000003040700000000000000002A0611
:1000B00011241FBECFEFD8E0DEBFCDBF11E0A0E01E
:1000C000B1E0E0E5FEE002C005900D92A433B10777
:1000D000D9F722E0A4E3B1E001C01D92A03AB20733
:1000E000E1F710E0C8E5D0E004C02197FE010E94CE
:1000F0002007C735D107C9F70E9463060C9426076D
:100100000C94000008950895AF92BF92CF92DF92B1
:10011000EF92FF920F931F93CF93DF936C017B01BC
:100120008B01040F151FEB015E01AE18BF08C0174D
:10013000D10759F06991D601ED91FC910190F081C0
:10014000E02DC6010995892B79F7C501DF91CF9183
:100150001F910F91FF90EF90DF90CF90BF90AF90E5
:100160000895FC01538D448D252F30E0842F90E0BD
:10017000821B930B541710F0CF96089501970895A2
:10018000FC01918D828D981761F0A28DAE0FBF2F6B
:10019000B11D5D968C91928D9F5F9F73928F90E0C1
:1001A00008958FEF9FEF0895FC01918D828D981730
:1001B00031F0828DE80FF11D858D90E008958FEF6D
:1001C0009FEF0895FC01918D228D892F90E0805C36
:1001D0009F4F821B91098F739927089587EF91E0B4
:1001E0000E94E20021E0892B09F420E0822F08958B
:1001F00080E090E0892B29F00E94EE0081110C94A0
:1002000000000895FC01A48DA80FB92FB11DA35AB9
:10021000BF4F2C91848D90E001968F739927848F26
:10022000A689B7892C93A089B1898C918370806449
:100230008C93938D848D981306C00288F389E02DEA
:1002400080818F7D80830895EF92FF920F931F939B
:10025000CF93DF93EC0181E0888F9B8D8C8D981379
:100260001AC0E889F989808185FF15C09FB7F89485
:10027000EE89FF896083E889F989808183708064D1
:1002800080839FBF81E090E0DF91CF911F910F911C
:10029000FF90EF900895F62E0B8D10E00F5F1F4F2B
:1002A0000F731127E02E8C8D8E110CC00FB607FC3A
:1002B000FACFE889F989808185FFF5CFCE010E94C8
:1002C0000201F1CFEB8DEC0FFD2FF11DE35AFF4F33
:1002D000F0829FB7F8940B8FEA89FB898081806256
:1002E000CFCFCF93DF93EC01888D8823B9F0AA8913
:1002F000BB89E889F9898C9185FD03C0808186FDE1
:100300000DC00FB607FCF7CF8C9185FFF2CF80812F
:1003100085FFEDCFCE010E940201E9CFDF91CF91A1
:10032000089590E0FC01E656FF4F2491FC01EA5746
:10033000FF4F3491FC01EE58FF4FE491EE23C9F0DA
:10034000222339F0233001F1A8F4213019F12230B1
:1003500029F1F0E0EE0FFF1FE859FF4FA591B4918E
:100360008FB7F894EC91611126C030953E233C93F1
:100370008FBF08952730A9F02830C9F0243049F7FD
:10038000809180008F7D03C0809180008F77809363
:100390008000DFCF84B58F7784BDDBCF84B58F7DC0
:1003A000FBCF8091B0008F778093B000D2CF809147
:1003B000B0008F7DF9CF3E2BDACF3FB7F894809114
:1003C000EB019091EC01A091ED01B091EE0126B509
:1003D000A89B05C02F3F19F00196A11DB11D3FBF7D
:1003E000BA2FA92F982F8827BC01CD01620F711D4C
:1003F000811D911D42E0660F771F881F991F4A9546
:10040000D1F708958F929F92AF92BF92CF92DF92D1
:10041000EF92FF920E94DD014B015C0184EFC82E38
:10042000DD24D394E12CF12C0E94DD0168197909B7
:100430008A099B09683E734081059105A8F321E074
:10044000C21AD108E108F10888EE880E83E0981EF0
:10045000A11CB11CC114D104E104F10429F7FF90DF
:10046000EF90DF90CF90BF90AF909F908F900895C6
:1004700020919C01260F3327331F21323105ECF4E4
:100480002091C001FC0190E080E0243069F082E01E
:100490000895A0919C012191AC0144585E4FA40F96
:1004A000B52FB11D2C930196861798F380919C016E
:1004B000680F60939C0180E0089581E00895109298
:1004C000C00181E08093C2011092C10161E082E12C
:1004D0000E94910161E083E10E949101E9EBF0E06B
:1004E00080818E7F808380818D7F808388E480936C
:1004F000B80085E48093BC000895CF93DF9391E02A
:1005000090937B018823B9F0C091B800D091BA00D4
:100510008091BC008A7B8093BC0060E082E10E94F5
:10052000910160E083E10E9491010E945F02D093FB
:10053000BA00C093B800DF91CF9108950895E0917B
:10054000F6018091F501E81730F4F0E0EA5AFE4F29
:10055000808190E008958FEF9FEF08959091F601CC
:100560008091F5012FEF3FEF981748F4E92FF0E065
:10057000EA5AFE4F208130E09F5F9093F601C90157
:1005800008958091F5019091F601891B990B0895CA
:10059000CF92DF92EF92FF920F931F93CF93DF934F
:1005A0007C01CB018A0120915501222389F0EB01C6
:1005B0006B01C40ED51ECC15DD0569F06991D7011C
:1005C000ED91FC910190F081E02DC7010995F3CFE9
:1005D000642F0E943802C801DF91CF911F910F91C3
:1005E000FF90EF90DF90CF900895CF93DF931F920D
:1005F000CDB7DEB76983209155012223F9F0209110
:10060000F301203258F021E030E0FC0133832283F3
:1006100090E080E00F90DF91CF9108958091F401F8
:10062000E82FF0E0EB5CFE4F998190838F5F809321
:10063000F4018093F30181E090E0ECCF61E0CE0122
:1006400001960E943802F7CF90E080E00895CF92A3
:10065000DF92EF92FF920F931F93CF93C82F81E009
:10066000809355018DE0809334011092F401109233
:10067000F3016C2F62956F7084E992E00E94F5029D
:1006800080E1C89FB001112484E992E00E94F50244
:10069000C091F301C13208F091C00E94DD016B01ED
:1006A0007C018091C001811164C082E08093C0010F
:1006B00081E08093C2018FEF8093BF011092E4012B
:1006C000C093E301A5E3B1E0E3ECF1E080E0C813FF
:1006D00083C01092E5018091E5018A618093E50174
:1006E0008091C101813009F07BC01092C1010E944C
:1006F000DD016B017C018091E5018093BB0080915D
:10070000770190917801A0917901B0917A01892BBC
:100710008A2B8B2B99F00E94DD01009177011091BB
:1007200078012091790130917A016C197D098E0947
:100730009F090617170728073907E0F18091BC00C9
:1007400083FDD9CF85EC8093BC000E94DD016B0155
:100750007C018091C001823009F444C08091BF01C6
:100760008F3F61F18091BF01803241F18091BF01E3
:1007700025C08091770190917801A0917901B09185
:100780007A01892B8A2B8B2B09F48BCF0E94DD01F8
:1007900000917701109178012091790130917A01CF
:1007A0006C197D098E099F09061717072807390755
:1007B00008F077CF809176010E947D021092F401BB
:1007C0001092F30110925501CF911F910F91FF905C
:1007D000EF90DF90CF9008959D9191938F5F77CFA9
:1007E00085EEB1CF8091770190917801A091790148
:1007F000B0917A01892B8A2B8B2B09F4AACF0E9406
:10080000DD010091770110917801209179013091FB
:100810007A016C197D098E099F09061717072807A9
:10082000390708F096CFC6CFCF93DF93FC01019034
:100830000020E9F73197AF01481B590BBC0187EF46
:1008400091E00E948400EC0142E050E064E271E03B
:1008500087EF91E00E9484008C0F9D1FDF91CF9164
:10086000089585ED8093BC00809177019091780187
:10087000A0917901B0917A010796A11DB11D23E0E5
:10088000B695A795979587952A95D1F72091BC00A5
:1008900024FD03C01092C00108954091770150914A
:1008A00078016091790170917A01452B462B472B95
:1008B00069F30097A105B10541F025E32A95F1F709
:1008C00000000197A109B109E1CF809176010C9454
:1008D0007D021F920F920FB60F9211242F933F9318
:1008E0004F935F936F937F938F939F93AF93BF9338
:1008F000EF93FF9387EF91E00E940201FF91EF9148
:10090000BF91AF919F918F917F916F915F914F9127
:100910003F912F910F900FBE0F901F9018951F922F
:100920000F920FB60F9211242F938F939F93EF93F3
:10093000FF93E0910702F09108028081E0910D029F
:10094000F0910E0282FD1BC09081809110028F5F9A
:100950008F7320911102821741F0E0911002F0E0B4
:10096000E950FE4F958F80931002FF91EF919F9178
:100970008F912F910F900FBE0F901F90189580812F
:10098000F4CF1F920F920FB60F9211242F933F9323
:100990008F939F93AF93BF938091E7019091E8016C
:1009A000A091E901B091EA013091E60123E0230F23
:1009B0002D3758F50196A11DB11D2093E6018093B6
:1009C000E7019093E801A093E901B093EA018091D7
:1009D000EB019091EC01A091ED01B091EE01019637
:1009E000A11DB11D8093EB019093EC01A093ED014B
:1009F000B093EE01BF91AF919F918F913F912F9155
:100A00000F900FBE0F901F90189526E8230F0296A7
:100A1000A11DB11DD2CF1F920F920FB60F921124BC
:100A20002F933F934F935F936F937F938F939F93F6
:100A3000AF93BF93EF93FF938091B900887F803687
:100A400009F44AC0F0F5883209F4A7C018F58031DE
:100A500009F49BC0B8F4882309F4F9C0883009F47C
:100A600094C0FF91EF91BF91AF919F918F917F9132
:100A70006F915F914F913F912F910F900FBE0F900B
:100A80001F901895883109F488C0803251F78093FF
:100A9000BF0114C0803409F49DC040F48033B9F321
:100AA0008833F9F68093BF0185ECB0C0803509F436
:100AB00085C0883509F496C0883499F60E943104BF
:100AC000D0CF883909F48CC038F5883729F050F434
:100AD000883611F0803729F683E08093C0011092A8
:100AE000BE0157C0883809F47BC0803919F08038BE
:100AF00009F0B7CF8091BE01803208F071C0E0915B
:100B0000BE0181E08E0F8093BE018091BB00F0E0BA
:100B1000E256FE4F80833DC0803B39F0E0F4803ADE
:100B200009F479C0883A09F09CCF84E08093C00131
:100B300010929D0110929C01E091F101F091F2015F
:100B4000099580919C0181110FC081E080939C01E7
:100B500010927C0109C0803C09F4A6CF883C09F4BE
:100B6000A3CF883B09F07DCFE0919D0181E08E0FFE
:100B700080939D01F0E0E458FE4F80818093BB009C
:100B800090919D0180919C0129C08091E501809305
:100B9000BB0085EC8093BC0064CF9091E401809110
:100BA000E301981758F5E091E40181E08E0F8093FE
:100BB000E401F0E0ED53FE4F8081E9CFE091E401E4
:100BC00081E08E0F8093E4018091BB00F0E0ED5353
:100BD000FE4F80839091E4018091E3019817C8F261
:100BE00085E8D8CFE091E40181E08E0F8093E401A5
:100BF0008091BB00F0E0ED53FE4F80838091C201F5
:100C000081115CCF81E08093C10184EA8093BC00B4
:100C10001092C00126CF85EC8093BC001092C001D9
:100C20008091BE01803230F4E091BE01F0E0E256E6
:100C3000FE4F10826091BE0170E0E091EF01F091F3
:100C4000F0018EE991E009951092BE010ACF109251
:100C5000BF0134CFE7EFF1E01382128288EE93E018
:100C6000A0E0B0E084839583A683B78324E031E0DD
:100C70003183208325EC30E03587248724EC30E075
:100C80003787268720EC30E0318B208B21EC30E059
:100C9000338B228B22EC30E0358B248B26EC30E03A
:100CA000378B268B118E128E138E148EE4E9F2E0B0
:100CB0001382128284839583A683B78386E191E0B1
:100CC000918380830895789484B5826084BD84B5CF
:100CD000816084BD85B5826085BD85B5816085BD37
:100CE00080916E00816080936E00109281008091EF
:100CF0008100826080938100809181008160809377
:100D00008100809180008160809380008091B1009B
:100D100084608093B1008091B00081608093B000C6
:100D200080917A00846080937A0080917A0082605A
:100D300080937A0080917A00816080937A0080911C
:100D40007A00806880937A001092C100E0910702D7
:100D5000F091080282E08083E0910302F0910402A6
:100D60001082E0910502F09106028FEC80831092D0
:100D70000F02E0910B02F0910C0286E08083E0917B
:100D80000902F0910A02808180618083E09109026A
:100D9000F0910A02808188608083E0910902F091DD
:100DA0000A02808180688083E0910902F0910A0242
:100DB00080818F7D80831092F6011092F501109250
:100DC000F4011092F3010E945F0282E890E0909398
:100DD000F2018093F10183E890E09093F001809319
:100DE000EF01C0E0D0E087E291E00E9414048FEFB1
:100DF0000E9427030E9402028BE291E00E941404E9
:100E000080E80E9427030E9402028FE291E00E9484
:100E1000140480E00E9427030E94020281E391E013
:100E20000E94140483E30E9427030E940202209779
:100E3000D1F20E94EE008823B1F20E940000D3CFCD
:100E4000EE0FFF1F0590F491E02D0994F894FFCF69
:100E50000000000024018400B1007101E200C00024
:100E6000D40000000000F502C80224039E02C10263
:100E7000AE029F020D0A00323535003132380030A3
:040E80000035310008
:00000001FF
